:100000000C9458000C9480000C9480000C94800098
:100010000C9480000C9480000C9480000C94800060
:100020000C9480000C9480000C9480000C94800050
:100030000C9480000C9480000C9480000C94800040
:100040000C9436040C9480000C94A6040C94800448
:100050000C9480000C9480000C9480000C94800020
:100060000C94D8040C9480000000000025002800A7
:100070002B00040404040404040402020202020229
:10008000030303030303010204081020408001025C
:1000900004081020010204081020000000080002DB
:1000A0000100000304070000000000000000F70545
:1000B00011241FBECFEFD8E0DEBFCDBF11E0A0E01E
:1000C000B1E0E0E6F5E102C005900D92A235B1077E
:1000D000D9F722E0A2E5B1E001C01D92AE3BB20724
:1000E000E1F710E0C8E5D0E004C02197FE010E94CE
:1000F000D007C735D107C9F70E9430060C94AE0A65
:100100000C94000090E0FC01E656FF4F2491FC01A6
:10011000EA57FF4F3491FC01EE58FF4FE491EE2374
:10012000C9F0222339F0233001F1A8F4213019F16C
:10013000223029F1F0E0EE0FFF1FE859FF4FA591A3
:10014000B4918FB7F894EC91611126C030953E239D
:100150003C938FBF08952730A9F02830C9F0243090
:1001600049F7809180008F7D03C0809180008F7758
:1001700080938000DFCF84B58F7784BDDBCF84B5DB
:100180008F7DFBCF8091B0008F778093B000D2CF6E
:100190008091B0008F7DF9CF3E2BDACF3FB7F89436
:1001A0008091C1019091C201A091C301B091C4019D
:1001B00026B5A89B05C02F3F19F00196A11DB11DC2
:1001C0003FBFBA2FA92F982F8827BC01CD01620FFE
:1001D000711D811D911D42E0660F771F881F991FB9
:1001E0004A95D1F7089580919A0190919B01891BBE
:1001F000990B089508950895AF92BF92CF92DF9220
:10020000EF92FF920F931F93CF93DF936C017B01CB
:100210008B01040F151FEB015E01AE18BF08C0175C
:10022000D10759F06991D601ED91FC910190F081CF
:10023000E02DC6010995892B79F7C501DF91CF9192
:100240001F910F91FF90EF90DF90CF90BF90AF90F4
:100250000895FC01538D448D252F30E0842F90E0CC
:10026000821B930B541710F0CF96089501970895B1
:10027000FC01918D828D981761F0A28DAE0FBF2F7A
:10028000B11D5D968C91928D9F5F9F73928F90E0D0
:1002900008958FEF9FEF0895FC01918D828D98173F
:1002A00031F0828DE80FF11D858D90E008958FEF7C
:1002B0009FEF0895FC01918D228D892F90E0805C45
:1002C0009F4F821B91098F739927089585E192E0D2
:1002D0000E945A0121E0892B09F420E0822F089521
:1002E00080E090E0892B29F00E94660181110C9436
:1002F00000000895FC01A48DA80FB92FB11DA35AC9
:10030000BF4F2C91848D90E001968F739927848F35
:10031000A689B7892C93A089B1898C918370806458
:100320008C93938D848D981306C00288F389E02DF9
:1003300080818F7D80830895EF92FF920F931F93AA
:10034000CF93DF93EC0181E0888F9B8D8C8D981388
:100350001AC0E889F989808185FF15C09FB7F89494
:10036000EE89FF896083E889F989808183708064E0
:1003700080839FBF81E090E0DF91CF911F910F912B
:10038000FF90EF900895F62E0B8D10E00F5F1F4F3A
:100390000F731127E02E8C8D8E110CC00FB607FC49
:1003A000FACFE889F989808185FFF5CFCE010E94D7
:1003B0007A01F1CFEB8DEC0FFD2FF11DE35AFF4FCA
:1003C000F0829FB7F8940B8FEA89FB898081806265
:1003D000CFCFCF93DF93EC01888D8823B9F0AA8922
:1003E000BB89E889F9898C9185FD03C0808186FDF0
:1003F0000DC00FB607FCF7CF8C9185FFF2CF80813F
:1004000085FFEDCFCE010E947A01E9CFDF91CF9138
:10041000089520917301260F3327331F21323105B0
:10042000ECF42091EB01FC0190E080E0243069F0D5
:1004300082E00895A09173012191AC014D5A5E4F65
:10044000A40FB52FB11D2C930196861798F38091B8
:100450007301680F6093730180E0089581E008954F
:100460001092EB0181E08093EA011092C50161E0F6
:1004700082E10E94820061E083E10E948200E9EB58
:10048000F0E080818E7F808380818D7F808388E40F
:100490008093B80085E48093BC000895CF93DF93E8
:1004A00091E0909352018823B9F0C091B800D091A7
:1004B000BA008091BC008A7B8093BC0060E082E13E
:1004C0000E94820060E083E10E9482000E9430026C
:1004D000D093BA00C093B800DF91CF9108958F9266
:1004E0009F92AF92BF92CF92DF92EF92FF920F93C3
:1004F0001F93CF93DF93D0911402D13208F0D7C06D
:10050000182FC09113020E94CE006B017C018091D4
:10051000EB0181116BC082E08093EB011093EA0143
:100520008FEF8093E9011092E801D093E701A3EFE8
:10053000B1E0E7ECF1E080E0D81391C01092C60181
:100540008091C601CC0FC82BC093C6018091C50114
:10055000813009F088C01092C5010E94CE006B0165
:100560007C018091C6018093BB008091ED01909148
:10057000EE01A091EF01B091F001892B8A2B8B2B1A
:10058000A1F00E94CE000091ED011091EE012091AA
:10059000EF013091F0016C197D098E099F09061752
:1005A00017072807390708F442C08091BC0083FD73
:1005B000D8CF85EC8093BC000E94CE006B017C01FB
:1005C0008091EB01823009F450C08091E9018F3FA6
:1005D00009F46FC08091E901803209F46CC0809108
:1005E000E901803309F469C084E026C08091ED01FF
:1005F0009091EE01A091EF01B091F001892B8A2B2F
:100600008B2B09F484CF0E94CE008090ED01909056
:10061000EE01A090EF01B090F0016C197D098E09F8
:100620009F0986169706A806B90608F070CF809134
:10063000EC010E944E0285E01092F2011092140229
:100640001092F101DF91CF911F910F91FF90EF90E8
:10065000DF90CF90BF90AF909F908F9008959D9125
:1006600091938F5F69CF85EEA5CF8091ED01909139
:10067000EE01A091EF01B091F001892B8A2B8B2B19
:1006800009F49ECF0E94CE000091ED011091EE0181
:100690002091EF013091F0016C197D098E099F09BD
:1006A000061717072807390708F08ACFC0CF81E05F
:1006B000C3CF80E0C1CF82E0BFCF83E0BDCF08953C
:1006C000E0919B0180919A01E81730F4F0E0E45644
:1006D000FE4F808190E008958FEF9FEF08959091F5
:1006E0009B0180919A012FEF3FEF981748F4E92F73
:1006F000F0E0E456FE4F208130E09F5F90939B0135
:10070000C9010895CF92DF92EF92FF920F931F934A
:10071000CF93DF937C01CB018A012091F101222349
:1007200089F0EB016B01C40ED51ECC15DD0569F017
:100730006991D701ED91FC910190F081E02DC70105
:100740000995F3CF642F0E940902C801DF91CF9170
:100750001F910F91FF90EF90DF90CF900895CF936E
:10076000DF931F92CDB7DEB769832091F101222379
:10077000F9F020911402203258F021E030E0FC0121
:100780003383228390E080E00F90DF91CF91089532
:100790008091F201E82FF0E0ED50FE4F99819083B7
:1007A0008F5F8093F2018093140281E090E0ECCFA0
:1007B00061E0CE0101960E940902F7CF90E080E04F
:1007C0000895CF93DF93FC0101900020E9F7319762
:1007D000AF01481B590BBC0185E192E00E94FC006F
:1007E000EC0142E050E064E271E085E192E00E94B9
:1007F000FC008C0F9D1FDF91CF91089585ED8093B4
:10080000BC008091ED019091EE01A091EF01B091BB
:10081000F0010796A11DB11D23E0B695A795979508
:1008200087952A95D1F72091BC0024FD03C0109232
:10083000EB0108954091ED015091EE016091EF01BF
:100840007091F001452B462B472B69F30097A105CA
:10085000B10541F02AE22A95F1F700C00197A109FC
:10086000B109E1CF8091EC010C944E021F920F92DE
:100870000FB60F9211242F933F938F939F93AF93B3
:10088000BF938091BD019091BE01A091BF01B09135
:10089000C0013091BC0123E0230F2D3758F501969C
:1008A000A11DB11D2093BC018093BD019093BE0199
:1008B000A093BF01B093C0018091C1019091C2018A
:1008C000A091C301B091C4010196A11DB11D8093F7
:1008D000C1019093C201A093C301B093C401BF9121
:1008E000AF919F918F913F912F910F900FBE0F90DD
:1008F0001F90189526E8230F0296A11DB11DD2CF97
:100900001F920F920FB60F9211242F933F934F9384
:100910005F936F937F938F939F93AF93BF93EF9367
:10092000FF9385E192E00E947A01FF91EF91BF91E0
:10093000AF919F918F917F916F915F914F913F9177
:100940002F910F900FBE0F901F9018951F920F922E
:100950000FB60F9211242F938F939F93EF93FF93D2
:10096000E0912502F09126028081E0912B02F09126
:100970002C0282FD1BC0908180912E028F5F8F73AD
:1009800020912F02821741F0E0912E02F0E0EB5E01
:10099000FD4F958F80932E02FF91EF919F918F9144
:1009A0002F910F900FBE0F901F9018958081F4CF5C
:1009B0001F920F920FB60F9211242F933F934F93D4
:1009C0005F936F937F938F939F93AF93BF93EF93B7
:1009D000FF938091B900887F803609F44AC0F0F512
:1009E000883209F4A7C018F5803109F49BC0B8F427
:1009F000882309F4F9C0883009F494C0FF91EF917D
:100A0000BF91AF919F918F917F916F915F914F9126
:100A10003F912F910F900FBE0F901F901895883126
:100A200009F488C0803251F78093E90114C0803402
:100A300009F49DC040F48033B9F38833F9F680930C
:100A4000E90185ECB0C0803509F485C0883509F42A
:100A500096C0883499F60E94FE03D0CF883909F4F5
:100A60008CC038F5883729F050F4883611F080377B
:100A700029F683E08093EB011092950157C08838E6
:100A800009F47BC0803919F0803809F0B7CF809124
:100A90009501803208F071C0E091950181E08E0FE0
:100AA000809395018091BB00F0E0EB58FE4F80836E
:100AB0003DC0803B39F0E0F4803A09F479C0883ACF
:100AC00009F09CCF84E08093EB01109274011092A6
:100AD0007301E0919801F09199010995809173015A
:100AE00081110FC081E0809373011092530109C0FE
:100AF000803C09F4A6CF883C09F4A3CF883B09F0D9
:100B00007DCFE091740181E08E0F80937401F0E05D
:100B1000ED5AFE4F80818093BB00909174018091CB
:100B2000730129C08091C6018093BB0085EC80933E
:100B3000BC0064CF9091E8018091E701981758F5C7
:100B4000E091E80181E08E0F8093E801F0E0E95345
:100B5000FE4F8081E9CFE091E80181E08E0F809324
:100B6000E8018091BB00F0E0E953FE4F8083909153
:100B7000E8018091E7019817C8F285E8D8CFE091A5
:100B8000E80181E08E0F8093E8018091BB00F0E0E6
:100B9000E953FE4F80838091EA0181115CCF81E0AF
:100BA0008093C50184EA8093BC001092EB0126CFAC
:100BB00085EC8093BC001092EB018091950180320E
:100BC00030F4E0919501F0E0EB58FE4F1082609117
:100BD000950170E0E0919601F091970185E791E031
:100BE0000995109295010ACF1092E90134CFE5E101
:100BF000F2E01382128288EE93E0A0E0B0E08483FA
:100C00009583A683B78324E031E03183208325ECEC
:100C100030E03587248724EC30E03787268720ECC6
:100C200030E0318B208B21EC30E0338B228B22ECB7
:100C300030E0358B248B26EC30E0378B268B118E01
:100C4000128E138E148EE2EBF2E0138212828483F2
:100C50009583A683B78386E191E09183808308958D
:100C6000CF93DF93CDB7DEB764970FB6F894DEBFAE
:100C70000FBECDBF789484B5826084BD84B5816099
:100C800084BD85B5826085BD85B5816085BD809157
:100C90006E00816080936E001092810080918100CF
:100CA00082608093810080918100816080938100C7
:100CB000809180008160809380008091B100846089
:100CC0008093B1008091B00081608093B0008091EA
:100CD0007A00846080937A0080917A0082608093A9
:100CE0007A0080917A00816080937A0080917A0006
:100CF000806880937A001092C10010929B0110923C
:100D00009A011092F201109214020E9430028AEFAE
:100D100090E090939901809398018BEF90E09093ED
:100D2000970180939601E0912502F091260282E0DE
:100D30008083E0912102F09122021082E09123024F
:100D4000F09124028FEC808310922D02E091290211
:100D5000F0912A0286E08083E0912702F091280238
:100D6000808180618083E0912702F0912802808158
:100D700088608083E0912702F0912802808180685A
:100D80008083E0912702F091280280818F7D80830B
:100D900001E00093F10180E48093130281E00E945E
:100DA0006F02182F882329F087E291E00E94E10367
:100DB000FFCF0093F1011092F201109214026EEF36
:100DC00082EB92E00E94AF0381E00E946F020E94DA
:100DD000CE006B017C018091EB01811162C081E04A
:100DE0008093EB018093EA019FEF9093E9011092C9
:100DF000E8011092E7018093C6018091C6018068E6
:100E00008093C6018091C501813009F08BC010929A
:100E1000C5010E94CE006B017C018091C6018093C8
:100E2000BB008091ED019091EE01A091EF01B09196
:100E3000F001892B8A2B8B2BA1F00E94CE00809091
:100E4000ED019090EE01A090EF01B090F0016C19CF
:100E50007D098E099F0986169706A806B90608F42B
:100E600041C08091BC0083FDD8CF85EC8093BC004D
:100E70000E94CE006B017C018091EB01813009F46E
:100E800053C08091E801811171C08091E801A7EC05
:100E9000B1E0ECE9F1E0181749F19D9191931F5FE2
:100EA000FACF8091ED019091EE01A091EF01B09108
:100EB000F001892B8A2B8B2B09F48DCF0E94CE0059
:100EC0008090ED019090EE01A090EF01B090F001C4
:100ED0006C197D098E099F0986169706A806B90622
:100EE00008F079CF8091EC010E944E0210929B0194
:100EF00010939A011123E1F182EB92E00E946F03BB
:100F0000803DB9F58BE391E00E94E10300E010E041
:100F100001151105E9F30E9466018823C9F30E94B7
:100F20000000F6CF85EEA2CF8091ED019091EE0109
:100F3000A091EF01B091F001892B8A2B8B2B09F442
:100F40009BCF0E94CE008090ED019090EE01A0908A
:100F5000EF01B090F0016C197D098E099F0986168A
:100F60009706A806B90608F087CFBCCF81E08FCFDF
:100F70008FEF1F928F9381E491E09F938F938E0167
:100F80000F5F1F4F1F930F930E94D607C8010E9447
:100F9000E1030F900F900F900F900F900F90B6CF2E
:100FA000EE0FFF1F0590F491E02D0994AEE0B0E044
:100FB000ECEDF7E00C94850A0D891E8986E08C83A0
:100FC0001A8309838FEF9FE79E838D83AE01475E6F
:100FD0005F4F6F89788DCE0101960E94F9072F81AE
:100FE0003885020F131FF80110822E96E4E00C944E
:100FF000A10AABE0B0E0EFEFF7E00C94770A7C01D8
:101000003B018A01FC0117821682838181FFC8C1DE
:10101000CE0101965C01F7019381F30193FD859167
:1010200093FF81913F01882309F453C1853239F43C
:1010300093FD859193FF81913F01853229F4B7019A
:1010400090E00E94E909E7CF912C212C312CFFE19F
:10105000F31538F08B3211F190F4803209F18332BC
:1010600029F137FC3CC020ED280F2A3050F536FE20
:1010700020C08AE0989E200D1124922E06C08D3249
:1010800091F0803371F7689430F8F30193FD859106
:1010900093FF81913F018111DACF21C0689431F82B
:1010A000689432F8F2CF689433F8EFCF689434F84C
:1010B000ECCFEAE02E9E200D1124222E689435F804
:1010C000E4CF8E3229F436FC04C1689436F8DDCFC3
:1010D0008C3619F4689437F8D8CF8836B1F2982F47
:1010E0009F7D95549330E0F08336A1F18337C1F1B1
:1010F000833509F063C02801F2E04F0E511CF8015E
:10110000C080D180692D70E036FC02C06FEF7FEFA8
:10111000C6010E94D3094C01689437F882010AC0C5
:101120000C5F1F4FFFE3F98388248394912C6501A2
:10113000E89437F833FE2DC0522C8114910471F5D8
:10114000552009F468CFB70180E290E00E94E909D8
:101150005A94F6CFF801808189830E5F1F4FE4CF48
:101160002801F2E04F0E511CF801C080D180692D9A
:1011700070E036FC02C06FEF7FEFC6010E94DE090F
:101180004C018201D5CFB70180E290E00E94E909CD
:101190002A942814190409F0B0F7CECFF60137FCD1
:1011A000859137FE81916F01B70190E00E94E909B6
:1011B00051105A94F1E08F1A9108BFCF843619F07C
:1011C000893609F077C0F80137FE6BC06081718104
:1011D000828193810C5F1F4FF32DFF763F2E97FF87
:1011E00009C090958095709561957F4F8F4F9F4F67
:1011F000689437F82AE030E0A5010E94190AC82E49
:10120000CA188C2C432C36FE0CC0E89440F8C91444
:1012100040F434FE05C032FC03C0F32DFE7E4F2E99
:10122000892C44FE95C0FE01EC0DF11D80818033B8
:1012300009F087C0242D297E422E842D8870582ED7
:1012400043FC95C040FE8FC09C2C821418F42C0CDB
:10125000922C981844FE91C0B70180E390E00E9460
:10126000E90942FE09C088E790E041FE02C088E536
:1012700090E0B7010E94E909C91408F48AC0CA9431
:10128000D12C9FEFC91AD90ACA0CDB1CF601829136
:101290006F01B70190E00E94E909AC14BD04B1F7F9
:1012A0004FCF60817181072E000C880B990B0E5F68
:1012B0001F4F92CFD32CE894D4F82AE030E0853742
:1012C00039F1232D297FD22E8F3601F148F488354C
:1012D000A9F0F701868197812B96E2E10C94930A9D
:1012E000803749F08837A9F7D4FE02C06894D2F855
:1012F00020E130E00DC06894D4F8F6CF34FE03C08E
:10130000822F8660D82E20E132E002C028E030E053
:10131000F801D7FE0FC060817181828193810C5FDB
:101320001F4FA5010E94190AC82ECA183D2CE89427
:1013300037F867CF6081718190E080E00E5F1F4FCA
:10134000F0CF42FC02C0839478CF8394839475CF0E
:10135000842D867809F471CFF6CFB70180E290E052
:101360000E94E90983948214C0F3512C73CF522C4C
:101370005818821408F46ECFF8CF842D867809F4BB
:101380007BCF8BE241FE80E247FC8DE2B70190E02B
:1013900071CFB70180E390E00E94E9099A946CCF85
:1013A0008FEF9FEF99CFFC010590615070400110C5
:1013B000D8F7809590958E0F9F1F0895FC0161507E
:1013C000704001900110D8F7809590958E0F9F1F67
:1013D00008950F931F93CF93DF93182F092FEB01DD
:1013E0008B8181FD09C01FEF0FEF812F902FDF91BF
:1013F000CF911F910F91089582FF14C02E813F81DC
:101400008C819D81281739073CF4E881F981CF014F
:1014100001969983888310838E819F8101969F8393
:101420008E83E3CFE885F985812F0995892BA1F378
:10143000DACFFA01AA27283051F1203181F1E8945E
:101440006F936E7F6E5F7F4F8F4F9F4FAF4FB1E0B7
:101450003ED0B4E03CD0670F781F891F9A1FA11DB2
:10146000680F791F8A1F911DA11D6A0F711D811DB3
:10147000911DA11D20D009F468943F912AE0269F78
:1014800011243019305D3193DEF6CF010895462FD7
:101490004770405D4193B3E00FD0C9F7F6CF462FB8
:1014A0004F70405D4A3318F0495D31FD4052419321
:1014B00002D0A9F7EACFB4E0A695979587957795DE
:1014C0006795BA95C9F700976105710508959B0165
:1014D000AC010A2E06945795479537952795BA95EE
:1014E000C9F7620F731F841F951FA01D08952F92C7
:1014F0003F924F925F926F927F928F929F92AF92A4
:10150000BF92CF92DF92EF92FF920F931F93CF93F0
:10151000DF93CDB7DEB7CA1BDB0B0FB6F894DEBF87
:101520000FBECDBF09942A88398848885F846E84AD
:101530007D848C849B84AA84B984C884DF80EE80F7
:10154000FD800C811B81AA81B981CE0FD11D0FB600
:10155000F894DEBF0FBECDBFED010895F894FFCF24
:10156000000000009C01FC002901E9015A0138013A
:101570004C0100000000AF038203DE035F03F300B1
:101580006F0360030D0A004E6F2064657669636522
:101590002077617320666F756E6400576F726B738E
:1015A00000446F65736E277420776F726B3A202545
:0215B0007800C1
:00000001FF
